:100000000C9497000C94BF000C94BF000C94590FF3
:100010000C94590F0C94590F0C94BF000C941F10A2
:100020000C94BF000C94BF000C94BF000C94630FA1
:100030000C94BF000C94BF000C94BF000C94BF0044
:100040000C94F40D0C94BF000C94C20D0C949C0DF8
:100050000C94BF000C94BF000C94BF000C94BF0024
:100060000C943E0E0C94BF00084AD73B3BCE016E69
:1000700084BCBFFDC12F3D6C74319ABD56833DDAFF
:100080003D00C77F11BED9E4BB4C3E916BAAAABE0E
:10009000000000803F004E414E494E495459494EA0
:1000A00046CDCCCC3D0AD7233C17B7D13877CC2BE3
:1000B000329595E6241FB14F0A000020410000C888
:1000C0004200401C4620BCBE4CCA1B0E5AAEC59D09
:1000D0007400000000230026002900000000080032
:1000E00002010000030407000000000000000000FF
:1000F000000000250028002B00000000002400273D
:10010000002A00040404040404040402020202029B
:1001100002030303030303010204081020408001CB
:10012000020408102001020408102000021111240A
:100130001FBECFEFD8E0DEBFCDBF11E0A0E0B1E041
:10014000EAE7F3E302C005900D92A638B107D9F7AC
:1001500025E0A6E8B1E001C01D92AD32B207E1F79B
:1001600010E0C7E9D0E004C02197FE010E94A71962
:10017000C639D107C9F70E94C0110C94BB190C9461
:10018000000090E0FC01E95EFE4F24918D5F9E4FE0
:10019000FC018491882399F090E0880F991FFC015D
:1001A000E750FF4FA591B491FC01E151FF4F8591BC
:1001B00094918FB7F894EC91E22BEC938FBF089554
:1001C000CF92DF92EF92FF92DC01803232E0930710
:1001D000BCF5853B910514F0A4EBB0E0409113050C
:1001E00028E830E0241B310947FD3395220F331FE7
:1001F000220F331F6901330FEE08FF0840911405E9
:100200002EE239E084E04802201931091124032E3E
:10021000000C440B550B2C193D094E095F09B7FF23
:1002200002C0B0E0A0E00E94101724EB30E040E0F4
:1002300050E00E94E616C20ED31EE41EF51ED60143
:10024000E0911205EC3068F52091130588E890E004
:10025000821B910927FD9395880F991F880F991F7D
:10026000A817B9076CF0209114058EE299E034E0EC
:100270002302801991091124A817B9070CF4CD01A4
:100280000297880F991F4FB7F8942E2F30E0F9018D
:10029000EE0FFF1FE20FF31FE351FB4F92838183A9
:1002A0004FBFFF90EF90DF90CF900895AF92BF9235
:1002B000CF92DF92EF92FF920F931F93CF93DF9332
:1002C0006C017B018B01040F151FEB015E01AE1861
:1002D000BF08C017D10759F06991D601ED91FC9183
:1002E0000190F081E02DC6010995892B79F7C501B0
:1002F000DF91CF911F910F91FF90EF90DF90CF9002
:10030000BF90AF900895FC01538D448D252F30E0B0
:10031000842F90E0821B930B541710F0CF96089512
:1003200001970895FC01918D828D981761F0A28D3F
:10033000AE0FBF2FB11D5D968C91928D9F5F9F7305
:10034000928F90E008958FEF9FEF0895FC01918DBB
:10035000828D981731F0828DE80FF11D858D90E028
:1003600008958FEF9FEF0895FC01918D228D892FC5
:1003700090E0805C9F4F821B91098F7399270895AD
:1003800085E393E00E94B40121E0892B09F420E089
:10039000822F089580E090E0892B29F00E94C0010F
:1003A00081110C9400000895FC01A48DA80FB92FB1
:1003B000B11DA35ABF4F2C91848D90E001968F738D
:1003C0009927848FA689B7892C93A089B1898C91AC
:1003D000837080648C93938D848D981306C00288FB
:1003E000F389E02D80818F7D80830895EF92FF92C5
:1003F0000F931F93CF93DF93EC0181E0888F9B8D48
:100400008C8D98131AC0E889F989808185FF15C001
:100410009FB7F894EE89FF896083E889F989808124
:100420008370806480839FBF81E090E0DF91CF91F3
:100430001F910F91FF90EF900895F62E0B8D10E015
:100440000F5F1F4F0F731127E02E8C8D8E110CC084
:100450000FB607FCFACFE889F989808185FFF5CFCF
:10046000CE010E94D401F1CFEB8DEC0FFD2FF11DD9
:10047000E35AFF4FF0829FB7F8940B8FEA89FB890C
:1004800080818062CFCF682F85E393E00C94F601E2
:10049000CF93DF93EC01888D8823B9F0AA89BB89BB
:1004A000E889F9898C9185FD03C0808186FD0DC0A6
:1004B0000FB607FCF7CF8C9185FFF2CF808185FFC7
:1004C000EDCFCE010E94D401E9CFDF91CF91089505
:1004D000833081F028F4813099F08230A9F00895BA
:1004E0008730A9F08830C9F08430B1F48091800061
:1004F0008F7D03C0809180008F7780938000089566
:1005000084B58F7784BD089584B58F7DFBCF8091AE
:10051000B0008F778093B00008958091B0008F7DF8
:10052000F9CF1F93CF93DF93282F30E0F901E552E5
:10053000FF4F8491F901E95EFE4FD491F901ED5F1F
:10054000FE4FC491CC23A9F0162F81110E9468029E
:10055000EC2FF0E0EE0FFF1FE151FF4FA591B4919A
:100560008FB7F894EC91111108C0D095DE23DC937D
:100570008FBFDF91CF911F910895DE2BF8CF1F938E
:10058000CF93DF93182FEB010E94C100209739F41D
:1005900060E0812FDF91CF911F910C949102CF3FAA
:1005A000D10511F461E0F5CFE12FF0E0E552FF4F06
:1005B000E491E33031F140F4E130B1F0E230E1F0C8
:1005C000C038D1057CF7E4CFE73029F1E83059F1A4
:1005D000E430B1F780918000806280938000D093F6
:1005E0008B00C0938A0004C084B5806884BDC7BDF9
:1005F000DF91CF911F91089584B5806284BDC8BDFD
:10060000F7CF80918000806880938000D09389002C
:10061000C0938800EDCF8091B00080688093B000D7
:10062000C093B300E5CF8091B00080628093B000AA
:10063000C093B400DDCF3FB7F894809184029091CD
:100640008502A0918602B091870226B5A89B05C0BD
:100650002F3F19F00196A11DB11D3FBFBA2FA92F41
:10066000982F8827BC01CD01620F711D811D911D3E
:1006700042E0660F771F881F991F4A95D1F70895AA
:1006800020913502260F3327331F21323105ECF438
:1006900020915902FC0190E080E0243069F082E072
:1006A0000895A09135022191AC014B5E5D4FA40FDE
:1006B000B52FB11D2C930196861798F380913502C2
:1006C000680F6093350280E0089581E008950895F1
:1006D0008FEF9FEF08958FEF9FEF089580910E02A7
:1006E00090E09195819591090895CF93DF93CB0187
:1006F000EA01642F0E944003CE01DF91CF9108955B
:10070000CF93DF931F92CDB7DEB7698361E0CE014F
:1007100001960E94400381E090E00F90DF91CF911D
:1007200008951F93CF93DF93EC01162F89810E94C8
:10073000C100612F8981DF91CF911F910C949102AB
:100740001F93CF93DF93EC01162F88810E94C10085
:10075000612F8881DF91CF911F910C94910290E0DD
:1007600080E00895FC0101900020E9F73197AF0186
:10077000481B590BBC0185E393E00C9456018F9202
:100780009F92AF92BF920F931F93CF93DF93CDB7FA
:10079000DEB7A1970FB6F894DEBF0FBECDBF19A28A
:1007A000423008F44AE08E010F5D1F4F842E912CD9
:1007B000B12CA12CA50194010E944F17E62FB9017D
:1007C000CA01EA30F4F4E05DD801EE938D01232BE9
:1007D000242B252B79F790E080E0109719F0CD01BC
:1007E0000E94B203A1960FB6F894DEBF0FBECDBF34
:1007F000DF91CF911F910F91BF90AF909F908F90FD
:100800000895E95CE1CF0C94B203CF92DF92EF92AE
:10081000FF92CF93DF936C01990FEE08FF08F7FE6C
:1008200017C08DE20E944302EC0166277727CB01B7
:100830006C197D098E099F094AE00E94BF038C0F45
:100840009D1FDF91CF91FF90EF90DF90CF900895A3
:100850004AE0C701B601DF91CF91FF90EF90DF90A2
:10086000CF900C94BF034F925F926F927F928F92C2
:100870009F92AF92BF92CF92DF92EF92FF920F932F
:100880001F93CF936B017C01742EAC019B010E94DE
:100890006619882399F086E191E0CF911F910F911D
:1008A000FF90EF90DF90CF90BF90AF909F908F9090
:1008B0007F906F905F904F900C94B2034601570168
:1008C000E894B7F82FEF3FEF4FE75FE7C501B401BA
:1008D0000E94661981110DC02FEF3FEF4FE75FE7D0
:1008E000C501B4010E94A91518161CF48AE191E013
:1008F000D4CF2FEF3FEF4FE75FE4C701B6010E946F
:10090000EB1818161CF48EE191E0C7CF2FEF3FEFE4
:100910004FE75FECC701B6010E94A91587FDF3CF31
:1009200020E030E0A901C701B6010E94A91510E03E
:1009300000E087FF08C08DE20E9443028C01F7FAB5
:10094000F094F7F8F094C0E060E070E080E09FE39E
:100950007C1641F020E030E040E251E40E941C1897
:10096000CF5FF6CFA70196010E9481172B013C01B2
:100970000E9495184B015C014AE00E94BF037C0174
:10098000E00EF11ECC23B1F1C501B4010E94AE15F9
:100990009B01AC01C301B2010E9480174B015C01B5
:1009A0008EE20E944302E80EF91EC15018F120E0C9
:1009B00030E040E251E4C501B4010E940F162B0162
:1009C0003C010E9495184B01B12CA12C4AE0C501B5
:1009D000B4010E94BF03E80EF91EC501B4010E94D4
:1009E000AE159B01AC01C301B2010E9480174B01FF
:1009F0005C01DBCFC701CF911F910F91FF90EF906A
:100A0000DF90CF90BF90AF909F908F907F906F902E
:100A10005F904F9008951F93CF93DF9385ED809360
:100A2000BC008091110290911202A0911302B0912A
:100A300014020796A11DB11D23E0B695A7959795C1
:100A400087952A95D1F72091BC0024FD03C0109210
:100A5000590252C04091110250911202609113024A
:100A600070911402452B462B472B69F30097A10583
:100A7000B10541F025E32A95F1F700000197A1099E
:100A8000B109E1CF80911002C1E0C0930F02882329
:100A900099F1D091B8001091BA008091BC008A7B86
:100AA0008093BC0060E082E10E94910260E083E1FB
:100AB0000E94910210925902C0935B0210925A0256
:100AC00061E082E10E94910261E083E10E94910273
:100AD0008091B9008E7F8093B9008091B9008D7F9D
:100AE0008093B90088E48093B80085E48093BC00CB
:100AF0001093BA00D093B800DF91CF911F91089561
:100B00000F931F93CF93DF9309EA12E0D0E0C0E088
:100B1000F80161918F01CE010E94D8162196C03450
:100B2000D105B1F7DF91CF911F910F910895CF9229
:100B3000DF92EF92FF9269017A012BED3FE049E4E9
:100B400050E40E941C1820E030E04AE756E40E947E
:100B50000F1620E030E040E05FE30E940F160E9495
:100B6000F8180E948E1860939402709395028093F7
:100B70009602909397022BED3FE049E450E4C701C1
:100B8000B6010E941C1820E030E04AE756E40E94BB
:100B90000F1620E030E040E05FE30E940F160E9455
:100BA000F8180E948E1860938E0270938F028093C3
:100BB000900290939102FF90EF90DF90CF90089574
:100BC0004F925F926F927F928F929F92AF92BF925D
:100BD000CF92DF92EF92FF92CF93DF93CDB7DEB744
:100BE000A4970FB6F894DEBF0FBECDBF2B013C011A
:100BF00069017A016091B3027091B402072E000C72
:100C0000880B990B0E94B0156D837E838F83988724
:100C10006091B5027091B602072E000C880B990BFB
:100C20000E94B01569837A838B839C832D813E81DA
:100C30004F815885CA01B9010E9481176D877E874F
:100C40008F87988B6D817E818F81988590582D81BB
:100C50003E814F8158850E940F1669A37AA38BA30A
:100C60009CA32D813E814F8158856D857E858F8522
:100C700098890E940F164B015C0129813A814B81B2
:100C80005C81CA01B9010E940F16698B7A8B8B8B2C
:100C90009C8B29813A814B815C81CA01B9010E94F8
:100CA000811729813A814B815C810E940F166D8FDB
:100CB0007E8F8F8F98A3A3019201C301B2010E947E
:100CC0000F166D8B7E8B8F8B988FA7019601C701B6
:100CD000B6010E940F16698F7A8F8B8F9C8F2D81A2
:100CE0003E814F81588569A17AA18BA19CA10E9468
:100CF0000F162D813E814F8158850E940F166987FE
:100D00007A878B879C8729813A814B815C81C501D9
:100D1000B4010E940F1629813A814B815C810E94A7
:100D20000F169B01AC0169857A858B859C850E9495
:100D3000811769877A878B879C87A3019201C501F8
:100D4000B4010E940F16A30192010E940F169B018D
:100D5000AC0169857A858B859C850E94811769879E
:100D60007A878B879C87A7019601C501B4010E94F1
:100D70000F16A70196010E940F169B01AC01698511
:100D80007A858B859C850E9481174B015C012981A6
:100D90003A814B815C8169897A898B899C890E941F
:100DA0000F1629813A814B815C810E940F169B01AD
:100DB000AC01C501B4010E9480174B015C01A30185
:100DC00092016D8D7E8D8F8D98A10E940F16A301CB
:100DD00092010E940F169B01AC01C501B4010E9453
:100DE00081174B015C01A70196016D8D7E8D8F8D62
:100DF00098A10E940F16A70196010E940F169B0151
:100E0000AC01C501B4010E9481174B015C01A30133
:100E100092016D897E898F89988D0E940F16A3019A
:100E200092010E940F169B01AC01C501B4010E9402
:100E300080174B015C01A3019201C301B2010E9422
:100E40008117A30192010E940F16A70196010E942B
:100E50000F16A70196010E940F169B01AC01C50158
:100E6000B4010E9480174B015C01A7019601698DB6
:100E70007A8D8B8D9C8D0E940F16A70196010E9482
:100E80000F169B01AC01C501B4010E9480170E949E
:100E900022196D8F7E8F8F8F98A32D813E814F8178
:100EA0005885CA01B9010E940F164B015C01A701C8
:100EB00096016D857E858F8598890E940F162D8DF0
:100EC0003E8D4F8D58A10E9481176B017C01A301BB
:100ED00092016D857E858F8598890E940F169B01F2
:100EE000AC01C501B4010E94801729893A894B8958
:100EF0005C890E9480172D893E894F89588D0E94F8
:100F00008117298D3A8D4B8D5C8D0E9481179B0135
:100F1000AC01C701B6010E941C180E94ED179B018D
:100F2000AC010E94811760939C0270939D02809394
:100F30009E0290939F0229813A814B815C816D854D
:100F40007E858F8598890E940F166B017C01AC010C
:100F50009B01C501B4010E94811729893A894B89F7
:100F60005C890E9481172D893E894F89588D0E9486
:100F70008017298D3A8D4B8D5C8D0E9480174B0117
:100F80005C01A701960169A17AA18BA19CA10E9495
:100F9000811729893A894B895C890E9480172D899C
:100FA0003E894F89588D0E948117298D3A8D4B8D2E
:100FB0005C8D0E948117A50194010E940F160E946A
:100FC0002219A50194010E941C180E94ED179B0193
:100FD000AC010E94811760939802709399028093EC
:100FE0009A0290939B02A4960FB6F894DEBF0FBEB0
:100FF000CDBFDF91CF91FF90EF90DF90CF90BF906A
:10100000AF909F908F907F906F905F904F900895DA
:101010002F923F924F925F926F927F928F929F9208
:10102000AF92BF92CF92DF92EF92FF920F931F93F6
:10103000CF93DF93CDB7DEB76E970FB6F894DEBFD0
:101040000FBECDBFC090A502D090A602E090A7022F
:10105000F090A80220913103309132034091330384
:1010600050913403C701B6010E9480172B013C0147
:101070002091A1023091A2024091A3025091A402BA
:1010800029833A834B835C8320912D0330912E0377
:1010900040912F035091300369817A818B819C812B
:1010A0000E9480174B015C01A3019201C301B201B0
:1010B0000E940F162B013C01A5019401C501B4014A
:1010C0000E940F169B01AC01C301B2010E9481175F
:1010D0000E9422192FE632E143E85AE30E94A91543
:1010E00087FDCFC029813A814B815C81C701B60160
:1010F0000E94E005209198023091990240919A0255
:1011000050919B0260919C0270919D0280919E0281
:1011100090919F020E949705209094023090950232
:1011200030929D0120929C0100918E0210918F02BD
:1011300010939B0100939A0180910001909101010D
:10114000AC01990F660B770B49835A836B837C83C1
:101150008091920290919302281A390A80918C0210
:1011600090918D02081B190B680117FF04C0CC2455
:10117000DD24C01AD10A510137FE04C0AA24BB24C1
:10118000A218B3087601CA14DB040CF47501B70188
:101190000F2C000C880B990B0E94B0152B013C0101
:1011A000B501BB0C880B990B0E94B015A3019201ED
:1011B0000E941C186D8B7E8B8F8B988FB601DD0C77
:1011C000880B990B0E94B015A30192010E941C1874
:1011D000698F7A8F8B8F9C8F121413040CF06AC066
:1011E00061E070E07A8B698B101611060CF067C015
:1011F000A1E0B0E0BC8BAB8BFA86E9861D821E8233
:101200001F821886412C512C32012FEF3FEF3C8773
:101210002B87E0909202F0909302C0909A01D090B8
:101220009B01A0908C02B0908D0280919C019091C6
:101230009D01E816F90609F047C0AC14BD0409F099
:1012400084C08091A5029091A602A091A702B091BE
:10125000A8028093310390933203A0933303B09399
:1012600034038091A1029091A202A091A302B091B7
:10127000A40280932D0390932E03A0932F03B09389
:1012800030036E960FB6F894DEBF0FBECDBFDF9170
:10129000CF911F910F91FF90EF90DF90CF90BF9073
:1012A000AF909F908F907F906F905F904F903F9006
:1012B0002F9008958FEF9FEF9A8B898B95CFEFEF4B
:1012C000FFEFFC8BEB8B98CF2D893E894F89588D92
:1012D000C301B2010E9481172B013C0120E030E0E4
:1012E00040E85FE30E94EB1887FD2BC080918B02E2
:1012F0001214130414F080918A0249895A89E40E69
:10130000F51EF0929302E092920260E018160CF043
:1013100061E083E295E00E94A00361E083E295E052
:101320000E94910360E083E295E00E94910320E037
:1013300030E040E85FE3C301B2010E9480172B0157
:101340003C01AC14BD0409F445C0298D3A8D4B8D88
:101350005C8D6D817E818F8198850E9481176D8360
:101360007E838F83988720E030E040E85FE30E942F
:10137000EB1887FD2FC0809189021016110614F01A
:10138000809188026B897C89A60EB71EB0928D026F
:10139000A0928C0260E018160CF061E087E295E004
:1013A0000E94A00361E087E295E00E94910360E063
:1013B00087E295E00E94910320E030E040E85FE39F
:1013C0006D817E818F8198850E9480176D837E83D9
:1013D0008F839887EB85FC85CF01FF0FAA0BBB0B92
:1013E00029813A814B815C81820F931FA41FB51F15
:1013F0002091020130910301A901330F660B770B95
:1014000049835A836B837C8384179507A607B707A4
:10141000ACF02091000130910101A901330F660B5E
:10142000770B49835A836B837C8384179507A607C0
:10143000B70724F489839A83AB83BC83C090E90205
:10144000D090EA02E090EB02F090EC0269817A81A0
:101450008B819C81C60ED71EE81EF91E2FB7F8940B
:101460008091800290918102A0918202B0918302CA
:101470002FBF409196015091970160919801709112
:101480009901841B950BA60BB70B81399140A105DF
:10149000B105F0F480910001909101019E8F8D8F34
:1014A000092E000CAA0BBB0B8C159D05AE05BF05C4
:1014B0000CF460C0B2E0CB16D10408F4A7C0CC0C89
:1014C000DD1CCC0CDD1CE5E0CE1AD108C6019CC0A9
:1014D0002FB7F8948091800290918102A0918202AE
:1014E000B09183022FBF8093960190939701A093B0
:1014F0009801B0939901ADEEB2E0E0E41D92EA9557
:10150000E9F71092A0021D8685E393E00E94B401E2
:10151000892B59F185E393E00E949201A091A002EA
:10152000E1E0EA0FE093A0020A2E000CBB0BA351EE
:10153000BD4F8C938A3091F40E2E000CFF0BE351BB
:10154000FD4F10820E941D0BADEEB2E0E0E41D9253
:10155000EA95E9F71092A002F1E0FD878091A002E0
:10156000803494F21092A002CFCF2D85222309F46B
:1015700091CF67CE4091E9025091EA026091EB026F
:101580007091EC024D875E876F87788BCB01BA0133
:1015900028EE33E040E050E00E94E61669017A014F
:1015A0000E941B034B015C01C114D104E104F1044E
:1015B000B9F00E941B03681979098A099B09683EE2
:1015C00073408105910580F351E0C51AD108E10807
:1015D000F10868EE860E63E0961EA11CB11CE4CFF4
:1015E0006D857E858F85988928EE33E040E050E058
:1015F0000E94E6166230710548F0660F771F660F8D
:10160000771F65507109CB010197F1F780910201B5
:10161000909103012D8D3E8D281B390B49855A85EC
:101620004217530724F461E070E07C876B8789855B
:101630009A8501979A878987ECCD0F931F93CF9353
:10164000DF9300D0CDB7DEB78091ED02873409F08B
:101650009AC08EEE92E00E94AF138130910591F016
:101660004C9709F458C087E691E00E94B2038CE2DF
:1016700091E00E94B2030F900F90DF91CF911F91E4
:101680000F910895AE014F5F5F4F69E371E08EEEF9
:1016900092E00E94F413AE014F5F5F4F69E371E087
:1016A00090E080E00E94F413009709F469C0FC0107
:1016B0002081283561F401960E94AB136093A50246
:1016C0007093A6028093A7029093A802E4CF2935D5
:1016D00061F401960E94AB136093A1027093A20281
:1016E0008093A3029093A402D6CF2A3521F40196C9
:1016F0000E94AB13D0CF2634D1F3213461F601968A
:101700000E94CD136093E9027093EA028093EB028A
:101710009093EC02C0CF1092E9021092EA0210926C
:10172000EB021092EC026091B3027091B4028091CE
:10173000B5029091B602680F791F072E000C880B36
:10174000990B0E94B0152AE037ED43E25CE30E945A
:10175000801790586093A5027093A6028093A70209
:101760009093A8021092A1021092A2021092A302DA
:101770001092A4028091B9029091BA020E94E000F6
:101780000E94080870CF8D3409F086C18EEE92E079
:101790000E94AF138330910509F4D4C064F5813001
:1017A000910509F498C0029709F05DCFAE014F5F33
:1017B0005F4F69E371E08EEE92E00E94F4138C01BA
:1017C000012B09F4A4C0AE014F5F5F4F69E371E0E4
:1017D00090E080E00E94F4138C01FC01808185354B
:1017E00009F089C0C80101960E94AF139093BA0214
:1017F0008093B902E5CF8530910509F401C10CF45D
:10180000B7C00A9709F02FCF8FE291E00E9403043E
:101810008091B3029091B4020E94050480E20E947C
:1018200043028091B5029091B6020E94050480E2C5
:101830000E9443026091310370913203809133031F
:101840009091340342E00E94330480E20E944302FC
:1018500060912D0370912E0380912F03909130039E
:1018600042E00E94330480E20E9443028BE391E055
:101870000E9403048091B10290E00E9405048DE370
:1018800091E00E9403048091B20290E00E9405045E
:1018900080E491E00E9403048091B7029091B80225
:1018A0000E94050483E491E00E9403048091B90240
:1018B0009091BA020E94050486E491E00E9403041C
:1018C0008091BB029091BC020E9405048CE291E0E1
:1018D0000E94B203C8CEAE014F5F5F4F69E371E073
:1018E0008EEE92E00E94F41389819A810E94AF13D8
:1018F0000E94E000B8CE843409F062CFC80101969E
:101900000E94AF139093BC028093BB0259CF82E236
:1019100091E00E9403048091B9029091BA020E9462
:10192000050488E291E00E9403048091BB0290913B
:10193000BC020E9405048CE291E00E94B2030E9466
:10194000800591CEAE014F5F5F4F69E371E08EEE8F
:1019500092E00E94F41389819A810E94CD136093D2
:10196000E9027093EA028093EB029093EC027BCE43
:10197000AE014F5F5F4F69E371E08EEE92E00E942F
:10198000F41389819A810E94AF13382F292F8F3F3A
:10199000910519F014F03FEF20E0032F122F0130D2
:1019A000FFEF1F0714F401E01FEF20912105309194
:1019B00022050217130709F456CE1093220500934F
:1019C000210597FD0FC061E08BE195E00E94910336
:1019D0008FE090E00197F1F7B80180911B050E941C
:1019E000BF0241CE60E08BE195E00E9491038FE061
:1019F00090E00197F1F766277727601B710BEDCF19
:101A0000AE014F5F5F4F69E371E08EEE92E00E949E
:101A1000F4138C01012B09F492CFAE014F5F5F4F9D
:101A200069E371E090E080E00E94F4138C01FC0116
:101A30008081813439F4C80101960E94AF138093EC
:101A4000B102E8CF823439F4C80101960E94AF1385
:101A50008093B202DFCF8D3449F4C80101960E9411
:101A6000AF139093B4028093B302D4CF8E3449F471
:101A7000C80101960E94AF139093B6028093B502FD
:101A8000C9CF843439F6C80101960E94AF139093F0
:101A9000B8028093B702BECF8035F9F489E491E0B3
:101AA0000E940304609131037091320380913303EB
:101AB0009091340342E00E9433048FE491E00E944D
:101AC000030460912D0370912E0380912F03909158
:101AD000300342E00E943304F9CE833409F0C3CDD1
:101AE000AE014F5F5F4F69E371E08EEE92E00E94BE
:101AF000F4138091B9029091BA020E94E00082E54D
:101B000091E00E94030480E090E4AEE8B3EC80939F
:101B1000A5029093A602A093A702B093A80280E02A
:101B200090E8A1E0B3E48093A1029093A202A09375
:101B3000A302B093A40224CE1F920F920FB60F926D
:101B400011242F933F934F935F936F937F938F93C2
:101B50009F93AF93BF93EF93FF9385E393E00E942E
:101B6000D401FF91EF91BF91AF919F918F917F91A0
:101B70006F915F914F913F912F910F900FBE0F90FA
:101B80001F9018951F920F920FB60F9211242F934A
:101B90008F939F93EF93FF93E0914503F09146035A
:101BA0008081E0914B03F0914C0382FD1BC090813A
:101BB00080914E038F5F8F7320914F03821741F006
:101BC000E0914E03F0E0EB5CFC4F958F80934E0369
:101BD000FF91EF919F918F912F910F900FBE0F90DA
:101BE0001F9018958081F4CF1F920F920FB60F921D
:101BF00011242F933F938F939F93AF93BF93809123
:101C0000800290918102A0918202B0918302309172
:101C10007F0223E0230F2D3758F50196A11DB11D3A
:101C200020937F028093800290938102A09382028E
:101C3000B09383028091840290918502A0918602E4
:101C4000B09187020196A11DB11D809384029093EB
:101C50008502A0938602B0938702BF91AF919F91B6
:101C60008F913F912F910F900FBE0F901F9018955D
:101C700026E8230F0296A11DB11DD2CF1F920F920D
:101C80000FB60F9211242F933F934F935F936F934F
:101C90007F938F939F93AF93BF93EF93FF93809125
:101CA000B900887F803609F44AC0F0F5883209F41B
:101CB000A5C018F5803109F499C0B8F4882309F457
:101CC000F5C0883009F492C0FF91EF91BF91AF91B8
:101CD0009F918F917F916F915F914F913F912F9144
:101CE0000F900FBE0F901F901895883109F486C091
:101CF000803251F78093580214C0803409F49BC09D
:101D000040F48033B9F38833F9F68093580285ECB8
:101D1000AEC0803509F483C0883509F494C0883496
:101D200099F60E940B05D0CF883909F48AC038F59E
:101D3000883729F050F4883611F0803729F683E08F
:101D4000809359021092570255C0883809F479C01F
:101D5000803919F0803809F0B7CF8091570280326E
:101D600008F06FC0E091570281E08E0F8093570218
:101D70008091BB00F0E0E95CFD4F80833BC0803B7D
:101D800039F0D0F4803A09F477C0883A09F09CCF52
:101D900084E0809359021092360210923502F0E0EE
:101DA000E0E009958091350281110FC081E08093B8
:101DB00035021092150209C0803C09F4A8CF883C76
:101DC00009F4A5CF883B09F07FCFE091360281E08E
:101DD0008E0F80933602F0E0EB5EFD4F80818093A2
:101DE000BB00909136028091350229C080917E021D
:101DF0008093BB0085EC8093BC0066CF90917D0200
:101E000080917C02981758F5E0917D0281E08E0F59
:101E100080937D02F0E0E45AFD4F8081E9CFE091AC
:101E20007D0281E08E0F80937D028091BB00F0E007
:101E3000E45AFD4F808390917D0280917C02981737
:101E4000C8F285E8D8CFE0917D0281E08E0F8093C3
:101E50007D028091BB00F0E0E45AFD4F80838091C9
:101E60005B0281115ECF81E080935A0284EA809305
:101E7000BC001092590228CF85EC8093BC001092D0
:101E8000590280915702803230F4E0915702F0E01D
:101E9000E95CFD4F10826091570270E087E392E0A9
:101EA000F0E0E0E00995109257020ECF1092580230
:101EB00038CF1F920F920FB60F9211240F900FBEC2
:101EC0000F901F9018951F920F920FB60F9211242A
:101ED0002F933F934F935F936F937F938F939F9332
:101EE000AF93BF93CF93DF93EF93FF9380910B0258
:101EF000C0911105D0E087FF24C010928500109298
:101F0000840080910B028F5F80930B0280910B0203
:101F1000082E000C990B8C179D0724F480910B025E
:101F20008C30C4F1809184009091850004968034B7
:101F30009C4908F47AC080918400909185000496B1
:101F400076C080910B02082E000C990B8C179D0710
:101F5000C4F6E0910B028E2FEE0F990BFC01EE0FF1
:101F6000FF1FE80FF91FE351FB4F808187FFC9CFA7
:101F7000E0910B028E2FEE0F990BFC01EE0FFF1F6D
:101F8000E80FF91FE351FB4F808160E08F770E94DB
:101F90009102B7CF2091840030918500E0910B022F
:101FA0008E2FEE0F990BFC01EE0FFF1FE80FF91FAC
:101FB000E351FB4F81819281820F931F909389009F
:101FC00080938800E0910B028E2FEE0F990BFC019D
:101FD000EE0FFF1FE80FF91FE351FB4F808187FFD2
:101FE00011C0E0910B028E2FEE0F990BFC01EE0F4A
:101FF000FF1FE80FF91FE351FB4F808161E08F77EE
:102000000E949102FF91EF91DF91CF91BF91AF912B
:102010009F918F917F916F915F914F913F912F9100
:102020000F900FBE0F901F90189580E49CE990933D
:102030008900809388008FEF80930B02E3CF1F927B
:102040000F920FB60F9211240F931F932F933F936C
:102050004F935F936F937F938F939F93AF93BF93B0
:10206000CF93DF93EF93FF93EDEDF0E08491E9E1FF
:10207000F1E0D491E5E0F1E0C491CC2379F0811155
:102080000E946802EC2FF0E0EE0FFF1FEF52FF4FAF
:10209000A591B491EC91ED2381E009F480E02091C9
:1020A000A4013091A5012F5F3F4F3093A5012093EC
:1020B000A40190910A02943618F095E090939F0144
:1020C00090919F01933009F44DC0C0F4923009F40F
:1020D0003FC0FF91EF91DF91CF91BF91AF919F9161
:1020E0008F917F916F915F914F913F912F911F91B0
:1020F0000F910F900FBE0F901F901895943009F418
:102100004AC0953031F79FB7F894409180025091C2
:10211000810260918202709183029FBF0091A001B1
:102120001091A1012091A2013091A301401B510BFC
:10213000620B730B493C51056105710508F45BC0E6
:1021400010920A021092A5011092A40182E020C010
:102150008111BFCF10920A021092A5011092A40122
:1021600083E016C0813009F0B4CF8091A401909132
:10217000A501E0910A0291E09E0F90930A02F0E01F
:10218000E256FE4F80871092A5011092A40184E0D0
:1021900080939F019ECF81110FC08091A4019091E7
:1021A000A501E0910A0291E09E0F90930A02F0E0EF
:1021B000E256FE4F8087D0CF8091A4019091A50177
:1021C0008536910508F485CF85E080939F012FB770
:1021D000F8948091800290918102A0918202B09146
:1021E00083022FBF8093A0019093A101A093A2012D
:1021F000B093A3016ECF81116CCF1092A501109204
:10220000A40167CF109238031092370388EE93E051
:10221000A0E0B0E08093390390933A03A0933B038E
:10222000B0933C0388E091E09093360380933503AC
:1022300085EC90E0909342038093410384EC90E01E
:10224000909344038093430380EC90E09093460383
:102250008093450381EC90E090934803809347037B
:1022600082EC90E090934A038093490386EC90E0DF
:1022700090934C0380934B0310924E0310924F03A4
:10228000109250031092510381E090E09093D30399
:102290008093D2031092D4041092D5041092D604E5
:1022A0001092D7041092D8041092D9041092DA0434
:1022B0001092DB041092DC041092DD041092DE0414
:1022C0001092DF041092E0041092E1041092E304F3
:1022D0001092E2041092E4041092E5041092E604D5
:1022E0001092E7041092E8041092E9041092EA04B4
:1022F0001092EB041092EC0483E08093270589E0B0
:102300008093280582E0809329058BE08093230544
:102310008AE08093240591E09093250595E09093C1
:102320001B0594E090931C0580931D0584E1809328
:1023300017058FE08093180587E0809319058FE0DB
:1023400090E09093160580931505809111058C30CF
:1023500098F491E0980F909311058093120590E006
:10236000FC01EE0FFF1FE80FF91FE351FB4F88EB55
:102370009BE09283818308958FEF809312050895E7
:10238000789484B5826084BD84B5816084BD85B550
:10239000826085BD85B5816085BD80916E0081605C
:1023A00080936E0010928100809181008260809302
:1023B0008100809181008160809381008091800004
:1023C0008160809380008091B10084608093B1002F
:1023D0008091B00081608093B00080917A00846029
:1023E00080937A0080917A00826080937A00809155
:1023F0007A00816080937A0080917A00806880936F
:102400007A001092C100E0914503F091460382E00A
:102410008083E0914103F09142031082E0914303F5
:10242000F091440380E1808310924D03E0914903D1
:10243000F0914A0386E08083E0914703F0914803DE
:10244000808180618083E0914703F091480380811F
:1024500088608083E0914703F09148038081806821
:102460008083E0914703F091480380818F7D8083D2
:1024700009EA12E0D0E0C0E0CE010E94D016D801F7
:102480008D938D012196C034D105B1F746E050E01F
:102490006AE671E089EA92E00E94AD19892BC1F1E8
:1024A00081E791E00E94B2038CE291E00E94B203C6
:1024B000EFEAF2E08AE3DF011D928A95E9F786E010
:1024C000EAE6F1E0A9EAB2E001900D928A95E1F71F
:1024D00088EA90E09093B4028093B3028EEC90E08F
:1024E0009093B6028093B50280E590E09093B80295
:1024F0008093B70280EA90E09093BA028093B90289
:102500008AE590E09093BC028093BB020E94800514
:102510008091B102811108C181E080938B028FEF1D
:1025200080938A028091B202811103C181E080937D
:1025300089028FEF809388022091B7023091B80210
:1025400084E690E0821B930B4AE0489F9001499FEC
:10255000300D1124309303012093020144E6489F7B
:102560009001499F300D1124309301012093000107
:10257000809112058C3008F053C0C09115058C2F46
:102580000E94C10080911205282F30E0F901EE0F62
:10259000FF1FE20FF31FE351FB4FCF77908190783D
:1025A0009C2B908310921305109214052CE0622F3F
:1025B0000E949B19829FB001112430E020E0AB0102
:1025C000420F531FFA01EE0FFF1FE40FF51FE351F7
:1025D000FB4F908197FD16C02F5F3F4F2C30310588
:1025E00071F781110FC01092800082E0809381000A
:1025F0001092850010928400B19A80916F008260E1
:1026000080936F00E09112058E2F90E0FC01EE0F99
:10261000FF1FE80FF91FE351FB4F80818068808323
:102620008091B9029091BA020E94E0006091B302D9
:102630007091B4028091B5029091B602680F791F33
:10264000072E000C880B990B0E94B0152AE037ED7D
:1026500043E25CE30E9480179058609331037093CB
:102660003203809333039093340310922D0310921E
:102670002E0310922F031092300320E030E0A901C6
:102680000E94E005209198023091990240919A02AF
:1026900050919B0260919C0270919D0280919E02DC
:1026A00090919F020E9497058091940290919502CB
:1026B000909393028093920280918E0290918F0268
:1026C00090938D0280938C020DEE12E080E4F82E40
:1026D000C0E0D0E085E393E00E94B401892BD9F0FB
:1026E00085E393E00E949201E091A0028A3031F5E7
:1026F00081E08E0F8093A0020E2E000CFF0BE351A1
:10270000FD4F10820E941D0BF8018F2D11928A95AA
:10271000E9F71092A0022097E9F20E94C0018823F5
:10272000C9F20E940000D6CF8FEF80938B0281E028
:10273000F7CE8FEF8093890281E0FCCEE0345CF726
:1027400091E09E0F9093A0020E2E000CFF0BE35120
:10275000FD4F8083E0CF662777270C943814FC0167
:1027600088279927E89421912032E9F3293010F045
:102770002E30C8F32B3241F02D3239F4689404C066
:102780000E943014820F911D219120532A30C0F3F2
:102790001EF4909581959F4F08951F93FC019927F2
:1027A0008827BC01E89411911032E9F3193010F038
:1027B0001E30C8F31B3251F01D3249F4689406C034
:1027C0000E941B14610F711D811D911D11911053E9
:1027D0001A30B0F33EF490958095709561957F4FD7
:1027E0008F4F9F4F1F910895FA01A191B0810097DB
:1027F00019F41097E1F0CD01DC01CD010D9000201E
:1028000011F4C00113C0FB012191222319F02015FE
:10281000D9F7F3CFFB012191201519F41E921196DF
:1028200006C02223C1F70D900020A1F7D001FA01C4
:10283000A193B0830895592F482F372F262F660F65
:10284000771F881F991F660F771F881F991F620FB8
:10285000731F841F951F660F771F881F991F089588
:102860007AE0979F902D879F802D910D11240895D8
:10287000B0E0A0E0EEE3F4E10C941E175C017B01F4
:102880006115710519F0DB018D939C9385010F5F34
:102890001F4FF501D0818D2F90E00E9488156C01AB
:1028A000892BB9F5DD32B9F50F5F1F4FD5011196B0
:1028B000DC91C1E05801F1E0AF1AB10843E050E00B
:1028C0006EE970E0C5010E949115892B69F56801D8
:1028D00082E0C80ED11C45E050E069E970E0C60115
:1028E0000E949115892B21F4680197E0C90ED11C33
:1028F000E114F10419F0D701CD92DC9260E070E0B0
:1029000080E89FEFC111FFC060E070E080E89FE7C2
:10291000FAC05801BBCFDB3229F485010E5F1F4F8F
:10292000F501D181C0E0C6CF43E050E066E970E038
:10293000C5010E949115892BE9F0F80110E000E033
:1029400020E030E0A9015F01B0ED8B2E8D0E89E013
:102950008815C8F19C2E689491F88C2F8870C2FF5E
:1029600016C0811102C00F5F1F4F3196D501DC9157
:10297000C92DE9CFE114F10429F00E5F1F4FF701D3
:102980001183008360E070E080EC9FE7BCC0882387
:1029900011F001501109A5E0B0E00E9405179B015C
:1029A000AC01220F331F441F551F280D311D411D3F
:1029B000511D283999E93907490799E15907A8F2C2
:1029C000C6609C2ED2CFAEEF8A1206C0C3FD3CC0BB
:1029D0009C2E689493F8C9CFDF7DD534A9F580810A
:1029E0008D3239F4C061DF011296818162E070E0BE
:1029F00006C0DF018B32C1F3119661E070E08053B5
:102A00005D01A61AB70A8A30F8F4E0E8CE16ECE0C9
:102A1000DE065CF4B601660F771F660F771FC60EE1
:102A2000D71ECC0CDD1CC80ED11C5D01FFEFAF1A08
:102A3000BF0A8C9180538A30A8F1C4FF03C0D1949F
:102A4000C194D1080C0D1D1DC1FF09C0E114F10492
:102A500031F081E0A81AB108D701AD92BC92CA0149
:102A6000B9010E94AE15C370C33009F490584B01F0
:102A70005C0120E030E0A9010E94A915882309F437
:102A800040C0CDECD0E017FF05C0119501951109AC
:102A9000C5EBD0E06E01B8E1CB1AD10880E2E82E98
:102AA000F12C0FC0D501B1CFFE0125913591459193
:102AB00054910E191F09C501B4010E940F164B0154
:102AC0005C01D501C4010E151F0574F72497F59418
:102AD000E794CC16DD06A9F78A2F880F8B2F881F65
:102AE0008F3F49F020E030E0A901C501B4010E9408
:102AF000A915811106C082E290E090932C05809385
:102B00002B05C501B401CDB7DEB7ECE00C943A1744
:102B100091110C947C16803219F089508550C8F7B9
:102B20000895FB01DC014150504088F08D918134C3
:102B30001CF08B350CF4805E659161341CF06B35B4
:102B40000CF4605E861B611171F3990B0895881B6C
:102B5000FCCF0E94EB1508F481E00895E89409C0C9
:102B600097FB3EF490958095709561957F4F8F4FC0
:102B70009F4F9923A9F0F92F96E9BB279395F695D6
:102B8000879577956795B795F111F8CFFAF4BB0F54
:102B900011F460FF1BC06F5F7F4F8F4F9F4F16C0B8
:102BA000882311F096E911C0772321F09EE8872F42
:102BB000762F05C0662371F096E8862F70E060E0FE
:102BC0002AF09A95660F771F881FDAF7880F969577
:102BD000879597F90895990F0008550FAA0BE0E81B
:102BE000FEEF16161706E807F907C0F012161306CF
:102BF000E407F50798F0621B730B840B950B39F40F
:102C00000A2661F0232B242B252B21F408950A2674
:102C100009F4A140A6958FEF811D811D08950E94A2
:102C200022160C9496160E94881638F00E948F1671
:102C300020F0952311F00C947F160C948516112426
:102C40000C94CA160E94A71670F3959FC1F3950FB6
:102C500050E0551F629FF001729FBB27F00DB11D20
:102C6000639FAA27F00DB11DAA1F649F6627B00DB0
:102C7000A11D661F829F2227B00DA11D621F739F99
:102C8000B00DA11D621F839FA00D611D221F749FA7
:102C90003327A00D611D231F849F600D211D822FEE
:102CA000762F6A2F11249F5750409AF0F1F0882315
:102CB0004AF0EE0FFF1FBB1F661F771F881F915042
:102CC0005040A9F79E3F510580F00C947F160C945C
:102CD000CA165F3FE4F3983ED4F3869577956795DF
:102CE000B795F795E7959F5FC1F7FE2B880F911D6C
:102CF0009695879597F9089599278827089597F9C4
:102D00009F6780E870E060E008959FEF80EC089591
:102D100000240A94161617061806090608950024BA
:102D20000A9412161306140605060895092E039434
:102D3000000C11F4882352F0BB0F40F4BF2B11F4A8
:102D400060FF04C06F5F7F4F8F4F9F4F089557FD07
:102D50009058440F551F59F05F3F71F04795880F09
:102D600097FB991F61F09F3F79F0879508951216A0
:102D700013061406551FF2CF4695F1DF08C016164C
:102D800017061806991FF1CF8695710561050894FD
:102D90000895E894BB2766277727CB0197F9089514
:102DA000F999FECF92BD81BDF89A992780B5089513
:102DB000262FF999FECF1FBA92BD81BD20BD0FB657
:102DC000F894FA9AF99A0FBE01960895052E97FB8A
:102DD0001EF400940E94FD1657FD07D00E944F1765
:102DE00007FC03D04EF40C94FD1650954095309599
:102DF00021953F4F4F4F5F4F089590958095709567
:102E000061957F4F8F4F9F4F08950E947117A59F27
:102E1000900DB49F900DA49F800D911D11240895D5
:102E2000B7FF0C9405170E940517821B930B08959A
:102E30002F923F924F925F926F927F928F929F92CA
:102E4000AF92BF92CF92DF92EF92FF920F931F93B8
:102E5000CF93DF93CDB7DEB7CA1BDB0B0FB6F89469
:102E6000DEBF0FBECDBF09942A88398848885F84A9
:102E70006E847D848C849B84AA84B984C884DF801A
:102E8000EE80FD800C811B81AA81B981CE0FD11DFE
:102E90000FB6F894DEBF0FBECDBFED010895A1E2DD
:102EA0001A2EAA1BBB1BFD010DC0AA1FBB1FEE1FC4
:102EB000FF1FA217B307E407F50720F0A21BB30B0F
:102EC000E40BF50B661F771F881F991F1A9469F78B
:102ED00060957095809590959B01AC01BD01CF01E7
:102EE0000895A29FB001B39FC001A39F700D811DE3
:102EF0001124911DB29F700D811D1124911D089503
:102F00005058BB27AA270E9498170C9496160E9427
:102F1000881638F00E948F1620F039F49F3F19F47C
:102F200026F40C9485160EF4E095E7FB0C947F16BE
:102F3000E92F0E94A71658F3BA1762077307840790
:102F4000950720F079F4A6F50C94C9160EF4E095D7
:102F50000B2EBA2FA02D0B01B90190010C01CA0153
:102F6000A0011124FF27591B99F0593F50F4503EFE
:102F700068F11A16F040A22F232F342F4427585FF0
:102F8000F3CF469537952795A795F0405395C9F708
:102F90007EF41F16BA0B620B730B840BBAF09150C0
:102FA000A1F0FF0FBB1F661F771F881FC2F70EC05F
:102FB000BA0F621F731F841F48F487957795679532
:102FC000B795F7959E3F08F0B0CF9395880F08F01E
:102FD0009927EE0F979587950895DF93DD27B92FF1
:102FE000BF7740E85FE31616170648075B0718F43B
:102FF000D92F0E94F0189F938F937F936F930E9415
:103000006219E8E6F0E00E94C4180E9496162F911B
:103010003F914F915F910E942216DD2351F090580D
:10302000A2EA2AED3FE049EC5FE3D0785D270E94F9
:103030009817DF910C9496160E9430180C949616EF
:103040000E948F1658F00E94881640F029F45F3FC6
:1030500029F00C947F1651110C94CA160C94851605
:103060000E94A71668F39923B1F3552391F3951B9A
:10307000550BBB27AA2762177307840738F09F5F99
:103080005F4F220F331F441FAA1FA9F335D00E2E06
:103090003AF0E0E832D091505040E695001CCAF773
:1030A0002BD0FE2F29D0660F771F881FBB1F261736
:1030B00037074807AB07B0E809F0BB0B802DBF010D
:1030C000FF2793585F4F3AF09E3F510578F00C94DC
:1030D0007F160C94CA165F3FE4F3983ED4F38695AE
:1030E00077956795B795F7959F5FC9F7880F911DFD
:1030F0009695879597F90895E1E0660F771F881FE9
:10310000BB1F621773078407BA0720F0621B730B9B
:10311000840BBA0BEE1F88F7E09508950E9495186E
:103120006894B1110C94CA1608950E94AF1688F0E5
:103130009F5798F0B92F9927B751B0F0E1F0660F7B
:10314000771F881F991F1AF0BA95C9F714C0B130BC
:1031500091F00E94C916B1E008950C94C916672F2A
:10316000782F8827B85F39F0B93FCCF386957795EB
:103170006795B395D9F73EF49095809570956195D4
:103180007F4F8F4F9F4F0895DF93CF931F930F93E0
:10319000FF92EF92DF927B018C01689406C0DA2ED9
:1031A000EF010E942216FE01E894A5912591359128
:1031B00045915591A6F3EF010E949817FE019701E2
:1031C000A801DA9469F7DF90EF90FF900F911F91BB
:1031D000CF91DF9108950E94EB1508F48FEF0895C9
:1031E0009B01AC0160E070E080E89FE30C941C1848
:1031F0000E94AF16E8F09E37E8F09639B8F49E3892
:1032000048F4672F782F8827985FF9CF86957795B0
:10321000679593959539D0F3B62FB1706B0F711DEB
:10322000811D20F487957795679593950C946B197C
:103230000C9486190C94CA1619F416F40C9485167D
:103240000C9486190E94AF16B8F39923C9F3B6F30C
:103250009F57550B87FF0E9494190024A0E640EA6F
:10326000900180585695979528F4805C660F771FDB
:10327000881F20F026173707480730F4621B730BAE
:10328000840B202931294A2BA695179407942025D1
:1032900031254A2758F7660F771F881F20F0261719
:1032A0003707480730F4620B730B840B200D311D78
:1032B000411DA09581F7B901842F9158880F9695EB
:1032C000879508959B01AC010C940F160E94EB1595
:1032D000880B990B0895882371F4772321F0985077
:1032E000872B762F07C0662311F499270DC09051C4
:1032F000862B70E060E02AF09A95660F771F881F92
:10330000DAF7880F9695879597F908959F3F31F0E2
:10331000915020F4879577956795B795880F911D03
:103320009695879597F9089591505040660F771FAD
:10333000881FD2F70895991B79E004C0991F96174A
:1033400008F0961B881F7A95C9F780950895EE0FAF
:10335000FF1F0590F491E02D0994FB01DC01415021
:10336000504030F08D910190801919F40020B9F788
:0A337000881B990B0895F894FFCF15
:10337A00D007C80000000000F60156018301480288
:10338A00B4019201A6016E616E00696E66006F76E5
:10339A0066004D3220553A0020443A000D0A004D8D
:1033AA003130204D53434152412000410020420018
:1033BA00205300205500204400504F53205800202D
:1033CA005900706172736543636F646520616E644E
:1033DA00206D6F766520004F4B00534341524134B4
:1033EA000073657420746F2064656661756C74205F
:0633FA007365747570009C
:00000001FF
